:100000000C942A000C9447000C9447000C94470071
:100010000C9447000C9447000C947F000C9447000C
:100020000C9447000C9447000C9447000C94470034
:100030000C9447000C9447000C9447000C94470024
:100040000C9447000C9447000C9447000C94470014
:100050000C94470011241FBECFE5D4E0DEBFCDBF16
:1000600010E0A0E6B0E0E2E6F1E002C005900D92FB
:10007000A838B107D9F720E0A8E8B0E001C01D9288
:10008000AC38B207E1F70E9449000C94AF000C9421
:1000900000008FEF84BB15BA83E087BB18BA8EB51A
:1000A0008C608EBD8BE58BBD88EE8ABD789489B758
:1000B000806189BF21E092E028BBE0918A00F09145
:1000C0008B00EE0FFF1FEC58FF4F808185BBEFE2E6
:1000D000F5E73197F1F700C0000098BBE091880088
:1000E000F0918900EE0FFF1FE05AFF4F808185BB22
:1000F000EFE2F5E73197F1F700C00000DDCF1F9286
:100100000F920FB60F9211248F939F9380918A00C4
:1001100090918B008930910534F4019690938B0077
:1001200080938A0015C010928B0010928A008091F3
:100130008800909189008930910534F4019690935C
:1001400089008093880004C0109289001092880072
:100150009F918F910F900FBE0F901F901895F8945C
:02016000FFCFCF
:10016200FC006000DA00F2006600B600BE00E000AB
:10017200FE00F600FD006100DB00F3006700B7003F
:08018200BF00E100FF00F700DF
:00000001FF
