S01300006F6C6454696D65746573742E7372656383
S11300000C942A000C9434000C9434000C943400A6
S11300100C9434000C9434000C9434000C9434008C
S11300200C9434000C9434000C9434000C9434007C
S11300300C9434000C9434000C9434000C9434006C
S11300400C9434000C9434000C9434000C9434005C
S11300500C94340011241FBECFE5D4E0DEBFCDBF25
S11300600E9436000C9452000C9400008FEF8ABB5F
S113007084BB1BBA15BA8BBB2FEF33ED90E3215031
S113008030409040E1F700C000001BBA85BB2FEF61
S113009033ED90E3215030409040E1F700C0000080
S10B00A015BAE9CFF894FFCF73
S9030000FC
