S00B000050574D2E7372656325
S11300000C942B000C9453000C9446030C94530052
S11300100C9453000C9453000C9453000C94530010
S11300200C9453000C9453000C9453000C94530000
S11300300C9453000C9453000C9453000C945300F0
S11300400C9453000C9453000C9453000C945300E0
S11300500C9453005F0311241FBECFE5D4E0DEBF30
S1130060CDBF10E0A0E6B0E0EAEFF6E002C00590F4
S11300700D92A438B107D9F720E0A4E8B0E001C09C
S11300801D92A638B207E1F710E0CBE2D0E004C03D
S11300902197FE010E947503CA32D107C9F70E9455
S11300A090020C947B030C940000442311F0DF9A1B
S11300B001C0DF98862F82958F7080FF02C0D89A86
S11300C001C0D89881FF02C0D99A01C0D99882FF93
S11300D002C0DA9A01C0DA98887011F0DB9A01C084
S11300E0DB98DD9885E08A95F1F70000DD9A95E0CC
S11300F09A95F1F70000DD988FE891E00197F1F708
S113010000C00000442311F0DF9A01C0DF9860FFB3
S113011002C0D89A01C0D89861FF02C0D99A01C020
S1130120D99862FF02C0DA9A01C0DA9863FF02C06C
S1130130DB9A01C0DB98DD9895E09A95F1F7000011
S1130140DD9A85E08A95F1F70000DD988FE891E06B
S11301500197F1F700C000000895CF93DF93EC01FD
S113016088819FEF980F923038F0843029F082E034
S1130170888380E1898308C089818B7F803121F065
S113018082E0888380E18983D59AD79AD09AD19ADC
S1130190D29AD39A8FE79BEB0197F1F700C0000046
S11301A040E063E3CE010E9455008FE39FE1019795
S11301B0F1F700C0000040E063E3CE010E94550067
S11301C08FE39FE10197F1F700C0000040E063E393
S11301D0CE010E9455008FE39FE10197F1F700C023
S11301E0000040E062E3CE010E9455008FE39FE1EE
S11301F00197F1F700C0000040E068E2CE010E94E0
S113020055008FE39FE10197F1F700C0000040E043
S113021066E0CE010E9455008FE39FE10197F1F75C
S113022000C0000040E06CE0CE010E9455008FE366
S11302309FE10197F1F700C0000040E061E0CE01CA
S11302400E9455008FE39FE10197F1F700C0000081
S113025040E062E0CE010E9455008FE39FE10197E8
S1130260F1F700C00000DF91CF910895CF93DF93A1
S1130270EC0140E061E00E9455008FE39FE10197AB
S1130280F1F700C0000040E062E0CE010E9455009A
S11302908FE39FE10197F1F700C00000DF91CF9158
S11302A00895FC0120812130A1F0223021F466233D
S11302B021F160EC17C02430A9F4FC012181203124
S11302C051F0662351F0613051F0623051F064ED29
S11302D009C060E807C064ED05C060E803C060ECD5
S11302E001C064E9640F40E00E9455008FE39FE180
S11302F00197F1F700C00000089560E8F3CFBF92C2
S1130300CF92DF92EF92FF920F931F93CF93DF93DD
S11303108C0179010E94510180E1E81687E2F80618
S113032060F19701329522952F7023273F70232780
S1130330A7E4B3E00E946603EC01D695C795D69571
S1130340C795D695C7956C2F605D40E1C8010E94A2
S11303505500CC23A1F09C2F9150F1F78C2F8150A4
S113036020EF38ED829FE001839FD00D1124C70157
S113037080519742C80FD91F03C0E70101C0E701AC
S113038088EEE81683E0F80658F19E013695279525
S11303903695279536952795A5ECB0E20E9466031D
S11303A06C01D694C794D694C794D694C794D69423
S11303B0C79460E36C0D40E1C8010E945500CC2055
S11303C079F09C2D9150F1F7C85ED340CA9428E18E
S11303D03CEFC29EC001C39E900D1124C80FD91FCB
S11303E084E6E816F104F8F09E01369527953695D3
S11303F02795ABE7B4E10E9466036C01D694C794D9
S113040060E36C0D40E1C8010E945500CC2059F016
S11304109C2D9150F1F7C456D109CA9484E6C89E24
S1130420C019D10911248AE0E816F104F0F09E0104
S1130430ADECBCEC0E9466037C01F694E794F69460
S1130440E794F694E79460E36E0D40E1C8010E94DE
S11304505500EE2051F09E2D9150F1F72A97EA9421
S11304608AE0E89EC019D10911246C2F605D40E137
S1130470C8010E945500DF91CF911F910F91FF9009
S1130480EF90DF90CF90BF900895EF92FF920F937B
S11304901F93CF93DF93FB01442301F16081662313
S11304A0E9F0DC0111962C912223C1F0D42F8F01A5
S11304B07C010F5F1F4FC0E00AC0F80161918F01FA
S11304C0662361F0D70111968C918C1739F040E1C5
S11304D0C7010E945500CF5FCD13EFCFDF91CF91BD
S11304E01F910F91FF90EF900895EF92FF920F9359
S11304F01F93CF93DF938C017901FC01C181D0E07C
S1130500C41BD1090E9451014C2FB701C8010E949C
S11305104502DF91CF911F910F91FF90EF900895C5
S113052080E381BB88E482BB88E087BB18BA84E897
S113053090E00E94AD002FEF81EE94E021508040C6
S11305409040E1F700C0000084E890E00E9436018A
S11305502FEF87E893E1215080409040E1F700C0FD
S11305600000789421E730E040E060E084E890E027
S11305700E94750226E730E044E061E084E890E000
S11305800E9475022DE730E048E060E084E890E0E6
S11305900E94750280E88BBF8CE683BF82EA8FBD20
S11305A08CE18EBD81E792E097BD86BD05ED11E03B
S11305B0CC24CA94D12CE12CF12CC02FD12FD9BD3D
S11305C0C8BD9E014DE060E084E890E00E947F0198
S11305D08FE39CE90197F1F700C00000219779F7B8
S11305E0CC2DDD2DCCBF9E014AE061E084E890E093
S11305F00E947F019FEF29EF80E0915020408040CE
S1130600E1F700C00000219769F7CE2DDF2DD9BD99
S1130610C8BD9E014DE060E084E890E00E947F0147
S11306208FE39CE90197F1F700C000002196C53DD6
S113063091E0D90761F7C02FD12FDBBDCABD9E0160
S113064044E060E084E890E00E947F018FE39CE94D
S11306500197F1F700C00000219779F7CE2DDF2D27
S1130660CCBF9E014AE061E084E890E00E947F01F3
S11306709FEF29EF80E0915020408040E1F700C0D7
S113068000002196CF3FD10559F797CF1F920F92C3
S11306900FB60F9211242F938F939F932FEF83E222
S11306A094EF215080409040E1F700C000009F91FA
S11306B08F912F910F900FBE0F901F901895E4E823
S11306C0F0E082E0808380E181830895A29FB001FD
S11306D0B39FC001A39F700D811D1124911DB29F72
S11306E0700D811D1124911D0895EE0FFF1F0590BB
S10D06F0F491E02D0994F894FFCF73
S11306FA303132333435363738394142434445464A
S113070A005245443A00475245454E3A00424C5538
S107071A453A000058
S9030000FC
