S00D0000536972656E2E7372656316
S11300000C942A000C9434000C9434000C943400A6
S11300100C9434000C9434000C9434000C9434008C
S11300200C9434000C9434000C9434000C9434007C
S11300300C9434000C9434000C9434000C9434006C
S11300400C9434000C9434000C9434000C9434005C
S11300500C94340011241FBECFE5D4E0DEBFCDBF25
S11300600E9436000C9456000C94000080E381BB7F
S113007012BA82EA8FBD8CE18EBD80E991E09BBD0E
S11300808ABD31E722E0832F922F97BD86BD4FEFC3
S113009050E762E0415050406040E1F700C000008A
S11300A00196883E43E0940781F7EDCFF894FFCFA3
S9030000FC
