S0120000503130205465737420312E7372656350
S11300000C9464060C9481060C9481060C9481066D
S11300100C9481060C9481060C9481060C94810640
S11300200C94D7070C9467070C9481060C948106F2
S11300300C9481060C9481060C9481060C94810620
S11300400C9481060C9481060C9481060C94810610
S11300500C9481060C9481060C9481060C94810600
S11300600C9481060C948106FFFFFFFFFFFFFFFF46
S1130070FFFFFFFFFFFFFFFFFFFFFFFFFFFFFFFF8C
S1130080FFFFFFFFFFFFFFFF05FFFFFF1FFF1FFF36
S11300901FFF1FFF1FFF1FFF1FFF1FFF1FFFBFFFCC
S11300A0BFFFFFFF1FFF1FFF1F06FFFFFF11FF1111
S11300B0FF11FF11FF11FFFFFFFFFFFFFFFFFFFF16
S11300C0FFFFFFFFFFFFFFFFFFFF0AFFFF3FF33FBD
S11300D0F33FF37FE61F001F007FE67FC4FFCC1FC2
S11300E0001F00FFCCFF88FF99FF990EFFF7FFC1A7
S11300F0FF807F147F14FF17FF07FF83FFC07FF08B
S11301007FF47FF47F147F14FF80FFC10CFFFFCFC7
S1130110879F039F339F333F333F337F027F86C3E1
S1130120FC81FC99F999F999F999F381F312FFFF8C
S1130130FFF07FE03FC63FC63FC27FE0FFE0FFC065
S1130140CF800F0C0F1C1F1E0F0C0780EFC010FF79
S1130150FFFF1FFF1FFF1FFF1FFF1FFFFFFFFFFF0B
S1130160FFFFFFFFFFFFFFFFFFFFFFFFFFFFFF0694
S1130170FFFFFFE7FFCFFFCFFF8FFF8FFF1FFF1FA3
S1130180FF1FFF1FFF1FFF1FFF1FFF1FFF9FFF8F8B
S113019008FFFFFF3FFF9FFF9FFF8FFF8FFFC7FFFA
S11301A0C7FFC7FFC7FFC7FFC7FFC7FFC7FFCFFF13
S11301B08F08FFFFFFE7FFE7FF24FF00FFC7FFC330
S11301C0FF99FFDBFFFFFFFFFFFFFFFFFFFFFFFFC5
S11301D0FFFF0BFFFFFFFFFFFFFFF1FFF1FFF1FF49
S11301E0F11F001F001F00FFF1FFF1FFF1FFF1FFFE
S11301F0FFFFFF0EFFFFFFFFFFFFFFFFFFFFFFFFFC
S1130200FFFFFFFFFFFFFFFFFFFFFFFFFF9FFF1F3A
S1130210FF1FFF3F06FFFFFFFFFFFFFFFFFFFFFF83
S1130220FFFFFFFFFFFFFFFF03FF03FF03FFFFFFCE
S1130230FFFFFFFFFF09FFFFFFFFFFFFFFFFFFFFC0
S1130240FFFFFFFFFFFFFFFFFFFFFFFFFFFFFFFFBA
S1130250FF1FFF1FFF1F06FFFFFFF3FFF3FFE7FF73
S1130260E7FFE7FFC7FFCFFFCFFFCFFF9FFF9FFF52
S11302709FFF9FFF3FFF3F09FFFFFFC1FF80FF88F4
S11302807F1C7F1C7F1C7F1C7F1C7F1C7F1C7F1C92
S11302907F1CFF88FF80FFC10CFFFFFFF1FFF1FF10
S11302A0E1FF81FF01FF11FF71FFF1FFF1FFF1FF9A
S11302B0F1FFF1FFF1FFF1FFF10AFFFFFFC1FF8042
S11302C07F1C7F1C7FFC7FFCFFF8FFF0FFE1FFE356
S11302D0FFC7FF87FF8F7F007F000CFFFFFFC1FF79
S11302E0807F1C7F1C7FFC7FF8FFE0FFE07FF87FAE
S11302F0FC7FFC7F1C7F1CFF80FFC10CFFFF7FFC89
S11303007FF87FF87FF07FF07FE47FCC7FCC7F9C09
S11303107F3C1F001F007FFC7FFC7FFC0EFFFFFF64
S1130320C0FFC0FF8FFF8FFF8FFF81FF007F187F0B
S1130330FC7FFC7FFC7F1CFF08FF80FFC10CFFFFDC
S1130340FFE1FF807F88FF1CFF1FFF11FF007F0874
S11303507F1C7F1C7F1C7F1CFF88FF80FFE30CFF3A
S1130360FF7F007F007FFCFFF8FFF1FFF1FFE3FF59
S1130370E3FFC7FFC7FFC7FF8FFF8FFF8FFF8F0C00
S1130380FFFFFFC1FF807F1C7F1C7F1CFF88FFC114
S1130390FFC1FF887F1C7F1C7F1C7F08FF80FFC17B
S11303A00CFFFFFFE3FF80FF887F1C7F1C7F1C7F07
S11303B01C7F087F807FC47FFC7F9CFF08FF80FF39
S11303C0C30CFFFFFFFFFFFFFFFFFFFFFF1FFF1F28
S11303D0FF1FFFFFFFFFFFFFFFFFFFFFFF1FFF1FC9
S11303E0FF1F06FFFFFFFFFFFFFFFFFFFFFF1FFFD2
S11303F01FFF1FFFFFFFFFFFFFFFFFFF9FFF1FFF09
S11304001FFF3F06FFFFFFFFFFFFBFFF3FFE3FF061
S1130410FFC0FF07FF1FFF037FC03FF03FFEBFFF8A
S1130420FFFFFFFF0DFFFFFFFFFFFFFFFFFFFF3F8A
S1130430003F003F00FFFFFFFF3F003F003F00FF82
S1130440FFFFFFFFFF0DFFFFFFFFFFFFFF7FFF1F0A
S1130450FF03FFC03FF83FFE3FF0FF80FF03FF1F95
S1130460FF7FFFFFFFFF0DFFFFFFC07F803F0C3FBB
S11304701E3FFE3FFC7FF8FFF0FFE1FFE3FFE3FFD9
S1130480FFFFE3FFE3FFE30DFFFF3FFC0FE0C7C700
S1130490F39FF39F733C333B333B333B473CE73F92
S11304A0FF3F7F9C0F808FC311FFFF7FF07FF07FA2
S11304B0F03FE23FE23FE23FC71FC71FC71FC00F25
S11304C0800F808F8FC71FC71F10FFFF7F003F0063
S11304D01F001F1F1F1F1F1F3F003F001F008F1FF4
S11304E08F1F8F1F0F001F003F000FFFFF7FF01FA4
S11304F0C01F800F8F9F0FFF1FFF1FFF1FFF1FFFD6
S11305001F9F0F0F8F1F801FC07FF00FFFFF7F0003
S11305103F001F001F1F0F1F8F1F8F1F8F1F8F1F55
S11305208F1F8F1F1F1F1F003F00FF000FFFFF1FA4
S1130530001F001F00FF1FFF1FFF1F3F003F003F62
S113054000FF1FFF1FFF1F1F001F001F000EFFFFE4
S11305503F003F003F00FF1FFF1FFF1F7F007F0082
S11305607F00FF1FFF1FFF1FFF1FFF1FFF1F0DFF48
S1130570FF3FF80FE007C0C387E70FFF1FFF1F030C
S11305801E031E031EE38FC38703C007E03FF81159
S1130590FFFF8F1F8F1F8F1F8F1F8F1F8F1F0F0036
S11305A00F000F008F1F8F1F8F1F8F1F8F1F8F1F15
S11305B00FFFFFFF1FFF1FFF1FFF1FFF1FFF1FFF77
S11305C01FFF1FFF1FFF1FFF1FFF1FFF1FFF1FFF37
S11305D01F06FFFF3FFE3FFE3FFE3FFE3FFE3FFE86
S11305E03FFE3FFE3FFE3F1E3F1E3F0E3F807F808B
S11305F0FFE10DFFFF1F1F1F1E3F1C7F1CFF18FF85
S113060010FF007F007F043F0E3F1E1F1F1F1F9F10
S11306101F9F1F0FFFFFFF1FFF1FFF1FFF1FFF1F56
S1130620FF1FFF1FFF1FFF1FFF1FFF1FFF1F3F00B5
S11306303F003F000DFFFFC30FC30F830783070372
S1130640030303030323132310631863186318E3DA
S11306501CE31CE31F11FFFF8F1F8F0F8F078F07F2
S11306608F038F138F118F198F188F1C0F1C0F1E60
S11306700F1E0F1F8F1F0FFFFF3FF00FC007808754
S113068087C30FE31FE31FE31FE31FE31FC30F87AA
S11306908707800FC03FF011FFFF7F003F001F005E
S11306A01F1F1F1F1F1F1F003F007F00FF1FFF1F73
S11306B0FF1FFF1FFF1FFF1F0EFFFF1FF807E003B1
S11306C0C0C3C3E187F18FF18FF18FF18F718F2157
S11306D08603C303C001E010F811FFFF7F003F0051
S11306E01F001F1F1F1F1F1F1F003F00FF007F1839
S11306F03F1C3F1E1F1E1F1F1F1F0FFFFFFFE03F5A
S1130700803F801F0E1F1FFF0FFF813FC03FF01F60
S1130710FE1F1F1F0E1F803F80FFE00EFFFF1F0004
S11307201F001F00FFF1FFF1FFF1FFF1FFF1FFF1E7
S1130730FFF1FFF1FFF1FFF1FFF1FFF10EFFFF8F7A
S11307401F8F1F8F1F8F1F8F1F8F1F8F1F8F1F8F35
S11307501F8F1F8F1F0F0F1F801F807FE00FFFFF52
S1130760C71FC71F8F8F8F8F8F8F1FC71FC71FC7AD
S11307703FE23FE23FE27FF07FF07FF0FFF810FFBF
S1130780FFF81FF81FF18F718E718E718E23C423B1
S1130790C423C423C487E187E187E1C7E3C7E31324
S11307A0FFFF1F1F1F1F3F8E7FC47FC4FFE0FFE0BA
S11307B0FFF1FFE0FFE07FC47FC43F8E1F1F1F1FB8
S11307C00EFFFFC71FC71F8F8F1FC71FC73FE27FC3
S11307D0F07FF0FFF8FFF8FFF8FFF8FFF8FFF8FFED
S11307E0F810FFFF1F801F801F801FFE3FFC7FF853
S11307F0FFF8FFF1FFE3FFC3FF87FF0F1F001F0098
S11308001F000EFFFFFF07FF07FF07FF1FFF1FFF6C
S11308101FFF1FFF1FFF1FFF1FFF1FFF1FFF07FFFC
S113082007FF0708FFFFFF3FFF3FFF9FFF9FFF9F5B
S1130830FF9FFFCFFFCFFFCFFFC7FFE7FFE7FFE734
S1130840FFF3FFF307FFFFFF07FF07FF07FFC7FFE4
S1130850C7FFC7FFC7FFC7FFC7FFC7FFC7FFC7FF64
S113086007FF07FF0708FFFFFFF3FFE1FFE1FFC0FA
S1130870FFCC7F8C7F8C3F1EFFFFFFFFFFFFFFFF3E
S1130880FFFFFFFFFFFF0DFFFFFFFFFFFFFFFFFF66
S1130890FFFFFFFFFFFFFFFFFFFFFFFFFFFFFFFF64
S11308A0FFFFFF3F003F000DFFFFFF1FFF9FFFCF34
S11308B0FFFFFFFFFFFFFFFFFFFFFFFFFFFFFFFF44
S11308C0FFFFFFFFFFFFFFFF07FFFFFFFFFFFFFF2C
S11308D0FFFFFFFFC1FF807F3C7FFC7FE07F807FC5
S11308E00C7F1C7F187F003F860DFFFFFF1FFF1F3B
S11308F0FF1FFF1FFF107F007F0C3F1E3F1E3F1E88
S11309003F1E3F1E7F0C7F00FF100DFFFFFFFFFF08
S1130910FFFFFFFFFFFFE1FF807F8CFF1EFF1FFF34
S11309201FFF1FFF1E7F8CFF80FFE10CFFFF3FFEB8
S11309303FFE3FFE3FFE3FC23F803F8C3F1E3F1EB7
S11309403F1E3F1E3F1E3F8C3F803FC20DFFFFFFF7
S1130950FFFFFFFFFFFFFFFFC1FF807F1C7F1C7FA6
S1130960007F00FF1FFF1F7F0CFF80FFC10CFFFFF4
S1130970FFC1FF81FF8FFF8FFF03FF03FF8FFF8FF7
S1130980FF8FFF8FFF8FFF8FFF8FFF8FFF8F09FF79
S1130990FFFFFFFFFFFFFFFFFF3FC23F803F0C3F12
S11309A01E3F0C3F803FC23FFE3F1E7F80FFC00DB5
S11309B0FFFFFF1FFF1FFF1FFF1FFF107F003F0EE2
S11309C03F1E3F1E3F1E3F1E3F1E3F1E3F1E3F1E3B
S11309D00DFFFFFF1FFF1FFFFFFFFFFF1FFF1FFF95
S11309E01FFF1FFF1FFF1FFF1FFF1FFF1FFF1FFF13
S11309F01F06FFFFFFC7FFC7FFFFFFFFFFC7FFC7BC
S1130A00FFC7FFC7FFC7FFC7FFC7FFC7FFC7FF0772
S1130A10FF8F08FFFFFF1FFF1FFF1FFF1F7F1CFF2C
S1130A2018FF11FF03FF03FF01FF11FF18FF187FD9
S1130A301C7F1C0CFFFFFFDFFF9FFF1FFF1FFF1F1B
S1130A40FF1FFF1FFF1FFF1FFF1FFF1FFF1FFF1FB2
S1130A50FF0FFF8F07FFFFFFFFFFFFFFFFFFFFC732
S1130A60110300310C711C711C711C711C711C71FF
S1130A701C711C711C12FFFFFFFFFFFFFFFFFFFF34
S1130A80FF107F003F0C3F1E3F1E3F1E3F1E3F1EB8
S1130A903F1E3F1E3F1E0DFFFFFFFFFFFFFFFFFF37
S1130AA0FFFFE17F807F8C3F1E3F1E3F1E3F1E3FA6
S1130AB01E7F8C7F80FFE10DFFFFFFFFFFFFFFFF25
S1130AC0FFFFFF107F003F0E3F1E3F1E3F0C7F00C5
S1130AD0FF10FF1FFF1FFF1F0DFFFFFFFFFFFFFFA3
S1130AE0FFFFFF3FC23F803F1C3F1E3F1E3F0C3FA6
S1130AF0803FC23FFE3FFE3FFE0DFFFFFFFFFFFFB3
S1130B00FFFFFFFFFF11FF01FF0FFF1FFF1FFF1F6D
S1130B10FF1FFF1FFF1FFF1FFF1F0AFFFFFFFFFF36
S1130B20FFFFFFFFFFFFC1FF807F1CFF1FFF03FFCD
S1130B30807FF07FFC7F1CFF80FFC10CFFFFFFEF75
S1130B40FFCFFF8FFF8FFF03FF03FF8FFF8FFF8F09
S1130B50FF8FFF8FFF8FFF8FFF83FFC309FFFFFF0F
S1130B60FFFFFFFFFFFFFF3F1E3F1E3F1E3F1E3FD5
S1130B701E3F1E3F1E3F1E3F0C3F803FC20DFFFF26
S1130B80FFFFFFFFFFFFFFFF7F1C7F1C7F1CFF9CFD
S1130B90FF88FF88FFC9FFC1FFC1FFE3FFE30CFF2C
S1130BA0FFFFFFFFFFFFFFFFFF711C711C739C23FE
S1130BB088238927C927C907C187C38FE38FE31215
S1130BC0FFFFFFFFFFFFFFFFFFFF7F1C7F1CFF886E
S1130BD0FFC1FFC1FFE3FFC1FFC1FF887F1C7F1C72
S1130BE00CFFFFFFFFFFFFFFFFFFFF7F1C7F1C7F4A
S1130BF01C7F1C7F807FC07FFC7FFC7FFCFF00FF8D
S1130C00810CFFFFFFFFFFFFFFFFFFFFFF00FF005F
S1130C10FFF8FFF1FFE3FFC3FFC7FF8FFF1FFF00D4
S1130C20FF000BFFFFFFF1FFE1FFC7FFC7FFC7FF97
S1130C3087FF0FFF0FFF0FFF87FFC7FFC7FFC7FF28
S1130C40E1FFF10AFFFFFF3FFF3FFF3FFF3FFF3F91
S1130C50FF3FFF3FFF3FFF3FFF3FFF3FFF3FFF3FA0
S1130C60FF3FFF3F04FFFFFF1FFF0FFFC7FFC7FF4B
S1130C70C7FFC3FFE1FFE1FFE1FFC3FFC7FFC7FFFA
S1130C80C7FF0FFF1F0AFFFFFFFFFFFFFFFFFFFF6D
S1130C90FFFFFFFFDF831F001F003F78FFFFFFFF01
S1130CA0FFFFFFFFFFFF0EFFFFFFFFFFFFFFFFFF41
S1130CB007FF27FF27FF27FF27FF27FF27FF27FF20
S1130CC027FF27FF07FFFF0811241FBECFEFD8E03F
S1130CD0DEBFCDBF11E0A0E0B1E0E2EEFFE002C074
S1130CE005900D92A037B107D9F722E0A0E7B1E053
S1130CF001C01D92A331B207E1F70E94E2070C94F0
S1130D00EF070C9400005D985D9A08955E985E9AD2
S1130D100895CF93DF93D82FC8E0DD2314F45F9AAE
S1130D2001C05F980E948306DD0FC150B1F7DF91C7
S1130D30CF910895662351F080E0EFE9FFE0319709
S1130D40F1F700C000008F5F8613F7CF089521E705
S1130D5031E061EF71E040E09FEF09C091938F5F54
S1130D608830E1F7285F3F4F2617370719F0F9015C
S1130D70842FF4CF0895EF92FF921F93CF93DF93C4
S1130D80809111028160809311020F2EF2EFEF2EF9
S1130D90F1E0FF2EF02D41EF51E0A8E7B1E068EF5C
S1130DA071E017E02EC08081880F81932081222377
S1130DB034F49F01215031098160E9018883915005
S1130DC091F79C91990F9C939A01FA018081882351
S1130DD014F491609C93880FE9018883F701908152
S1130DE0992314F4816088838081880F81608083D3
S1130DF0D2E0ED0EF11C4E5F5F4F1896A617B707B1
S1130E0021F0FD013797912FCECF809111028E7F73
S1130E1080931102DF91CF911F91FF90EF9008957D
S1130E20CF93DF9370E06052710921E2269FC001E5
S1130E30279F900D112488599F4FA2EFB1E042E102
S1130E4052E0FC0124912C933196E491ED01219719
S1130E50E88302961296A417B50799F781E2869F54
S1130E60F001879FF00D1124E857FF4F8491DF9123
S1130E70CF910895FF920F931F93CF93DF938C012B
S1130E80EB01F42E81E080936E0188818823C1F008
S1130E9090916E01915090936E01911106C06991E9
S1130EA0C8010E94100780936E0161E0C8010E948E
S1130EB0BB066F2DC8010E949A0688818111E8CF74
S1130EC080E0DF91CF911F910F91FF9008951F92C1
S1130ED00F920FB60F921124FF920F931F932F932B
S1130EE03F934F935F936F937F938F939F93AF93AE
S1130EF0BF93CF93DF93EF93FF9300E010E00F2EA7
S1130F00FFE0FF2EF02DD0911202CF2DCD1BD095F6
S1130F10F80188E0C89FE00DF11D1124EF58FE4F41
S1130F2080810E948906C450CD13F2CF0F5F1F4FFA
S1130F300830110541F780911202813061F028F0E8
S1130F40823079F0833099F016C05C9A5B9A81E024
S1130F508093120210C05C9A5B9882E08093120224
S1130F600AC05C985B9A83E08093120204C05C9888
S1130F705B98109212020E9486068091110281FDF4
S1130F805A9AFF91EF91DF91CF91BF91AF919F91C9
S1130F908F917F916F915F914F913F912F911F910D
S1130FA00F91FF900F900FBE0F901F9018951F92F6
S1130FB00F920FB60F9211245A980F900FBE0F90F4
S1130FC01F90189580E791E00E94A70640910001C8
S1130FD061E071E080E791E00E943A07F7CFF8946E
S1050FE0FFCF3D
S1130FE2322077656C636F6D6520686F6D65205084
S1130FF23130206C6564206D617472697820646993
S113100273706C617920626F6172642062792077F7
S113101277772E6E696A6174656368626F6F6B734A
S11310222E636F6D20696E20636F6C6C61626F72E8
S11310326174696F6E2077697468207777772E659B
S11310427269742E636F6D2E6E672020000001009A
S9030000FC
