:100000000C942A000C9434000C9434000C943400AA
:100010000C9434000C9434000C9434000C94340090
:100020000C9434000C9434000C9434000C94340080
:100030000C9434000C9434000C9434000C94340070
:100040000C9434000C9434000C9434000C94340060
:100050000C94340011241FBECFE5D4E0DEBFCDBF29
:100060000E9436000C9450000C9400008FEF87BB68
:1000700018BA9FE389EF98BB2FEF3DE349E4215085
:1000800030404040E1F700C0000088BB2FEF3DE367
:1000900049E4215030404040E1F700C00000EBCF80
:0400A000F894FFCF02
:00000001FF
