S010000050495274657374312E7372656338
S11300000C942A000C9434000C9443000C94340097
S11300100C9434000C9434000C9434000C9434008C
S11300200C9434000C9434000C9434000C9434007C
S11300300C9434000C9434000C9434000C9434006C
S11300400C9434000C9434000C9434000C9434005C
S11300500C94340011241FBECFE5D4E0DEBFCDBF25
S11300600E9436000C9460000C9400008FEF8ABB51
S113007084BB1BBA15BA84E085BF80E88BBF789433
S11300808FEF8BBBFECF1F920F920FB60F921124EE
S11300902F938F939F931BBA8FEF85BB2FEF87EA24
S11300A091E6215080409040E1F700C0000015BA6D
S11300B09F918F912F910F900FBE0F901F901895C5
S10700C0F894FFCFDE
S9030000FC
