S01500004C434420696E746572666163652E737265636B
S11300000C942B000C9453000C9453000C94530048
S11300100C9453000C9453000C9453000C94530010
S11300200C9453000C9453000C9453000C94530000
S11300300C9453000C9453000C9453000C945300F0
S11300400C9453000C9453000C9453000C945300E0
S11300500C945300440211241FBECFE5D4E0DEBF4C
S1130060CDBF10E0A0E6B0E0E6EAF4E002C00590FF
S11300700D92A63AB107D9F720E0A6EAB0E001C094
S11300801D92A83AB207E1F710E0CBE2D0E004C039
S11300902197FE010E944B02CA32D107C9F70E9480
S11300A0ED010C9451020C940000DD98DF98D8986F
S11300B0D998DA98DB98862F82958F7080FDD89A2C
S11300C081FDD99A82FDDA9A887009F0DB9A411190
S11300D0DF9A8BE291E00197F1F700C00000DD9A0E
S11300E08BE291E00197F1F700C00000DD988BE20C
S11300F091E00197F1F700C00000DD98DF98D898EF
S1130100D998DA98DB9860FDD89A61FDD99A62FD96
S1130110DA9A63FDDB9A4111DF9A8BE291E0019751
S1130120F1F700C00000DD9A8BE291E00197F1F74E
S113013000C00000DD988BE291E00197F1F700C068
S113014000000895CF93DF93EC0188819FEF980F0F
S1130150923038F0843029F082E0888380E189830A
S113016008C089818B7F803121F082E0888380E11F
S11301708983D59AD79AD09AD19AD29AD39A8FE969
S11301809CE80197F1F700C0000040E063E3CE0172
S11301900E9455008FE697E10197F1F700C0000037
S11301A040E063E3CE010E9455008FE697E101979A
S11301B0F1F700C0000040E062E3CE010E94550068
S11301C08FE697E10197F1F700C0000040E06CE290
S11301D0CE010E9455008FE697E10197F1F700C028
S11301E0000040E066E0CE010E9455008FE697E1F2
S11301F00197F1F700C0000040E06CE0CE010E94DE
S113020055008FE697E10197F1F700C0000040E048
S113021061E0CE010E9455008FE697E10197F1F766
S113022000C0000040E062E0CE010E9455008FE66D
S113023097E10197F1F700C00000DF91CF91089595
S1130240CF93DF93EC0140E061E00E9455008FE61C
S113025097E10197F1F700C0000040E062E0CE01B1
S11302600E9455008FE697E10197F1F700C0000066
S1130270DF91CF91089540E00E9455008FE697E109
S11302800197F1F700C000000895FF920F931F93A8
S1130290CF93DF936C34E1F028F46623C9F0613026
S11302A0E9F406C06C36A1F0623711F06235B1F49E
S11302B00F2EFCE1FF2EF02D0FC0D42F8C01C0E0D7
S11302C06F2DC8010E943B01CF5FCD13F9CF06C04B
S11302D00F2EF8E1FF2EF02D4111EFCFDF91CF91DA
S11302E01F910F91FF900895FC0120812130A1F00E
S11302F0223021F4662321F160EC17C02430A9F4E4
S1130300FC012181203151F0662351F0613051F01C
S1130310623051F064ED09C060E807C064ED05C0C7
S113032060E803C060EC01C064E9640F40E00E942F
S113033055008FE697E10197F1F700C0000008959A
S113034060E8F3CFEF92FF920F931F93CF93DF9365
S1130350FB01442301F160816623E9F0DC0111967D
S11303602C912223C1F0D42F8F017C010F5F1F4FEA
S1130370C0E00AC0F80161918F01662361F0D701E2
S113038011968C918C1739F040E1C7010E945500F9
S1130390CF5FCD13EFCFDF91CF911F910F91FF90DE
S11303A0EF900895EF92FF920F931F93CF93DF93F3
S11303B08C017901FC01C181D0E0C41BD1090E94E8
S11303C074014C2FB701C8010E94A201DF91CF91A3
S11303D01F910F91FF90EF90089586EA90E00E949C
S11303E0A2002FEB84ED91E0215080409040E1F792
S11303F000C0000086EA90E00E9420012FE789EA0D
S113040093E0215080409040E1F700C0000021E7D4
S113041030E040E060E086EA90E00E94D2012EE7FE
S113042030E040E061E086EA90E00E94D2012FEFE4
S11304308CED9DE6215080409040E1F700C0000023
S113044086EA90E00E9420012DE830E042E060E07E
S113045086EA90E00E94D2012CE930E046E061E0B7
S113046086EA90E00E94D20141E060E086EA90E0F2
S11304700E9445012FEF85EA9EE021508040904084
S1130480E1F700C00000E0CFE6EAF0E082E080831C
S113049080E181830895EE0FFF1F0590F491E02D14
S10904A00994F894FFCF5B
S11304A630313233343536373839414243444546A0
S11304B600494E495449414C495A494E4700504C0B
S11304C64541534520574149542E2E2E0050524F34
S11304D64A4543542044455349474E00454D4D41F2
S10904E64E55454C0000D8
S9030000FC
