:100000000C942A000C9434000C9434000C943400AA
:100010000C9434000C9434000C9434000C94340090
:100020000C9434000C9434000C9434000C94340080
:100030000C9434000C9434000C9434000C94340070
:100040000C9434000C9434000C9434000C94340060
:100050000C94340011241FBECFE5D4E0DEBFCDBF29
:100060000E9436000C9459000C94000080EE84BB72
:1000700015BA8EB581608EBDE0E070E050E840E4D6
:1000800060E22E2F372F8CB59DB581369A4ED8F36E
:100090002F5F3F4F1DBC1CBC2C3331050CF055BBF2
:1000A000283731050CF045BB243B310561F765BBB2
:0600B000E8CFF894FFCF39
:00000001FF
