:100000000C9434000C9451000C9451000C94510049
:100010000C9451000C9451000C9451000C9451001C
:100020000C94BF010C944D010C9451000C945100A0
:100030000C9451000C9451000C9451000C945100FC
:100040000C9451000C9451000C9451000C945100EC
:100050000C9451000C9451000C9451000C945100DC
:100060000C9451000C94510011241FBECFEFD8E026
:10007000DEBFCDBF16E0A0E0B1E0ECE3F7E002C0E8
:1000800005900D92A838B107D9F726E0A8E8B6E0A8
:1000900001C01D92A33AB207E1F70E94CA010C9475
:1000A0009C030C940000CF93C42F8091A1068E7FF7
:1000B0008093A106219A239A249A259A29982B980D
:1000C0002D9A2C9A409A419A429A389A399A3A9A99
:1000D00070E080E090E00E947B0220E030E040E0B1
:1000E00055E40E9407039B01AC0160E074E284E7E1
:1000F0009BE40E94D8010E944A026093B300C69F0D
:10010000C001112464E670E00E9474036093B4009F
:1001100083E08093B0008EE08093B10085E080930F
:1001200070008FB780688FBFCF9108950F931F9392
:10013000CF93DF938091A10681608093A106E9E8C7
:10014000F6E0CAE8D6E009E916E049E956E018C049
:1001500081608083D9019C91990F9C93B801D8014B
:100160008C9188231CF49160D9019C93880FDB014A
:100170008C930F5F1F4F32962296E417F50741F0DC
:100180008081880F80839E01988199231CF7E0CF9E
:100190008091A1068E7F8093A106DF91CF911F9160
:1001A0000F910895862F90E0AC01440F551F440F26
:1001B000551F440F551F480F591FFA01E051FF4FBB
:1001C000A9E9B6E048505F4FBC019B0181918D9336
:1001D000E417F507D1F720523109F901EE0FFF1F9F
:1001E000EE0FFF1FEE0FFF1F2E0F3F1FF901E05F05
:1001F000FD4F80850895662351F080E0EFE9FFE030
:100200003197F1F700C000008F5F8613F7CF089594
:10021000FF920F931F93CF93DF938C01EB01F42E8A
:10022000F09481E08093100188818823C1F090913F
:100230001001915090931001911106C06991C8016D
:100240000E94D2008093100161E0C8010E949600D4
:100250006F2DC8010E94FB0088818111E8CF80E0EA
:10026000DF91CF911F910F91FF9008952C982C9AB8
:1002700008952D982D9A0895CF93DF93D82FC8E035
:10028000DD2314F42B9A01C02B980E943601DD0F58
:10029000C150B1F7DF91CF9108951F920F920FB621
:1002A0000F9211242F933F934F935F936F937F93FC
:1002B0008F939F93AF93BF93EF93FF938091A1068A
:1002C00080FD31C080E090E0DC01A757B94FFC0110
:1002D000E050FF4F2C91208311962C9121830296A0
:1002E0008031910589F71FC0409A01C040988091E4
:1002F000A20681FF02C0419A01C041988091A206E6
:1003000082FF02C0429A01C042980E943901809146
:10031000A2068F5F883018F48093A20602C0109264
:10032000A20629981BC0E091A206F0E0EE0FFF1F85
:10033000E050FF4F808180950E943C01E091A20631
:10034000F0E0EE0FFF1FE050FF4F818180950E948B
:100350003C018091A20680FDC7CFC8CFFF91EF91ED
:10036000BF91AF919F918F917F916F915F914F91CD
:100370003F912F910F900FBE0F901F9018951F92D5
:100380000F920FB60F921124299A0F900FBE0F9063
:100390001F9018954AE064E688E896E00E945300B2
:1003A00044E661E171E088E896E00E940801F8CF38
:1003B0000E94EC010C94CD020E94C60258F00E94EB
:1003C000BF0240F029F45F3F29F00C94B6025111AE
:1003D0000C9401030C94BC020E94DE0268F3992382
:1003E000B1F3552391F3951B550BBB27AA27621731
:1003F0007307840738F09F5F5F4F220F331F441F3E
:10040000AA1FA9F335D00E2E3AF0E0E832D0915071
:100410005040E695001CCAF72BD0FE2F29D0660F5E
:10042000771F881FBB1F261737074807AB07B0E8A1
:1004300009F0BB0B802DBF01FF2793585F4F3AF0A7
:100440009E3F510578F00C94B6020C9401035F3F77
:10045000E4F3983ED4F3869577956795B795F7952D
:100460009F5FC9F7880F911D9695879597F9089515
:10047000E1E0660F771F881FBB1F621773078407B1
:10048000BA0720F0621B730B840BBA0BEE1F88F7C0
:10049000E09508950E94E60288F09F5798F0B92FE2
:1004A0009927B751B0F0E1F0660F771F881F991FA9
:1004B0001AF0BA95C9F714C0B13091F00E94000348
:1004C000B1E008950C940003672F782F8827B85F58
:1004D00039F0B93FCCF3869577956795B395D9F701
:1004E0003EF490958095709561957F4F8F4F9F4F0B
:1004F0000895E89409C097FB3EF490958095709517
:1005000061957F4F8F4F9F4F9923A9F0F92F96E95F
:10051000BB279395F695879577956795B795F111D4
:10052000F8CFFAF4BB0F11F460FF1BC06F5F7F4F71
:100530008F4F9F4F16C0882311F096E911C0772383
:1005400021F09EE8872F762F05C0662371F096E88C
:10055000862F70E060E02AF09A95660F771F881F5B
:10056000DAF7880F9695879597F9089597F99F6719
:1005700080E870E060E008959FEF80EC089500242B
:100580000A941616170618060906089500240A94F8
:1005900012161306140605060895092E0394000C7E
:1005A00011F4882352F0BB0F40F4BF2B11F460FF0D
:1005B00004C06F5F7F4F8F4F9F4F089557FD905836
:1005C000440F551F59F05F3F71F04795880F97FB17
:1005D000991F61F09F3F79F08795089512161306D1
:1005E0001406551FF2CF4695F1DF08C01616170600
:1005F0001806991FF1CF8695710561050894089535
:10060000E894BB2766277727CB0197F908950E94C6
:100610001A030C94CD020E94BF0238F00E94C60259
:1006200020F0952311F00C94B6020C94BC02112416
:100630000C9401030E94DE0270F3959FC1F3950FA5
:1006400050E0551F629FF001729FBB27F00DB11D56
:10065000639FAA27F00DB11DAA1F649F6627B00DE6
:10066000A11D661F829F2227B00DA11D621F739FCF
:10067000B00DA11D621F839FA00D611D221F749FDD
:100680003327A00D611D231F849F600D211D822F24
:10069000762F6A2F11249F5750409AF0F1F088234B
:1006A0004AF0EE0FFF1FBB1F661F771F881F915078
:1006B0005040A9F79E3F510580F00C94B6020C946F
:1006C00001035F3FE4F3983ED4F3869577956795F1
:1006D000B795F795E7959F5FC1F7FE2B880F911DA2
:1006E0009695879597F9089597FB072E16F4009431
:1006F00007D077FD09D00E94880307FC05D03EF49F
:10070000909581959F4F0895709561957F4F0895BD
:10071000AA1BBB1B51E107C0AA1FBB1FA617B70727
:1007200010F0A61BB70B881F991F5A95A9F7809543
:0C0730009095BC01CD010895F894FFCF16
:10073C00103830441004100410381040387C00007D
:10074C000168656F6C6C6F20776F726C642E202063
:10075C002057656C65636F6D6520746F2045724919
:10076C0074202E2E2E202066696E6973682E2E2022
:10077C006E6F202000000000000000000000000050
:10078C00000000000000000000000000000000005D
:10079C00000000000000000000000000000000004D
:1007AC00000000000000000000000000000000003D
:1007BC00000000000000000000000000000000002D
:1007CC00000000000000000000000000000000001D
:1007DC00000000000000000000000000000000000D
:1007EC0000000000000000000000000000000000FD
:1007FC0000000000000000000000000000000000ED
:10080C0000000000000000000000000000000000DC
:10081C0000000000000000000000000000000000CC
:10082C0000000000000000000000000000000000BC
:10083C0000000000000000000000000000000000AC
:10084C000000000000000000038080808080008099
:10085C000002A0A0000000000000045050F850F866
:10086C005050000670A8A07028A870000642A4483A
:10087C0010244A8400082050207088887800064094
:10088C0040000000000000022040808080402000DA
:10089C00048040202020408000040020A870A82064
:1008AC00000006002020F8202000000600000000B8
:1008BC00C040800003000000F800000000060000AB
:1008CC00000000C0C000030008102040800000069B
:1008DC00708898A8C88870000640C040404040E02E
:1008EC000004708808102040F80006F8102010084A
:1008FC008870000610305090F810100006F880F048
:10090C00080888700006304080F08888700006F86F
:10091C00081020404040000670888870888870005D
:10092C000670888878081060000600C0C000C0C03F
:10093C0000000300C0C000C04080000310204080B5
:10094C0040201000050000F800F800000006804070
:10095C002010204080000570880810200020000620
:10096C003C429AA69C403E000870888888F888888B
:10097C000006F08888F08888F000067088808080F7
:10098C0088700006F08888888888F00006F88080D7
:10099C00F08080F80006F88080F08080800006707F
:1009AC008880B88888700006888888F888888800CD
:1009BC00068080808080808000023810101010909B
:1009CC006000068890A0C0A090880006808080807F
:1009DC008080F8000688D8A8A888888800068888AF
:1009EC00C8A898888800067088888888887000064F
:1009FC00F08888F0808080000670888888A89068CD
:100A0C000006F08888F0A090880006788080700836
:100A1C0008F00006F8202020202020000688888876
:100A2C008888887000068888888888502000068806
:100A3C008888A8A8D8880006888850205088880004
:100A4C0006888888502020200006F8081020408056
:100A5C00F80006C08080808080C0000300804020A9
:100A6C001008000006C04040404040C00003205029
:100A7C0088000000000006000000F80000000006DE
:100A8C0000604020000000000300007008788878A7
:100A9C000006808080F08888F0000600007080805E
:100AAC0088700006080808788888780006000070AE
:100ABC0088F880700006304840E040404000060056
:100ACC0078888878087000068080B0C8888888008C
:100ADC00064000C0404040E0000410003010109070
:100AEC00600005008090A0C0A0900005C040404070
:100AFC004040E000040000D0A8A888880006000050
:100B0C00B0C8888888000600007088888870000645
:100B1C000000F088F08080000600006898780808D3
:100B2C0000060000B0C88080800006000070807055
:100B3C0008F000064040E0404048300006000088C5
:100B4C008888986800060000888888502000060075
:100B5C0000888888A8500006000088502050880023
:100B6C00060000888878087000060000F810204005
:100B7C00F8000620404080404020000480808080A7
:100B8C0080808000028040402040408000040000B3
:100B9C000870800000000600000000000000000348
:100BAC000000000000000000000000000000000039
:100BBC000000000000000000000000000000000029
:100BCC000000000000000000000000000000000019
:100BDC000000000000000000000000000000000009
:100BEC0000000000000000000000000000000000F9
:100BFC0000000000000000000000000000000000E9
:100C0C0000000000000000000000000000000000D8
:100C1C0000000000000000000000000000000000C8
:100C2C0000000000000000000000000000000000B8
:100C3C0000000000000000000000000000000000A8
:100C4C000000000000000000000000000000000098
:100C5C000000000000000000000000000000000088
:100C6C000000000000000000000000000000000078
:100C7C000000000000000000000000000000000068
:100C8C000000000000000000000000000000000058
:100C9C000000000000000000000000000000000048
:100CAC000000000000000000000000000000000038
:080CBC00000000000000000030
:00000001FF
