:100000000C942A000C943F000C943F000C943F0089
:100010000C943F000C943F000C943F000C943F0064
:100020000C943F000C943F000C943F000C943F0054
:100030000C943F000C943F000C943F000C943F0044
:100040000C943F000C943F000C943F000C943F0034
:100050000C943F0011241FBECFE5D4E0DEBFCDBF1E
:1000600010E0A0E6B0E0ECEDF0E002C005900D92EB
:10007000A437B107D9F70E9441000C946C000C948E
:100080000000CF93DF93CDB7DEB764970FB6F89437
:10009000DEBF0FBECDBF8FEF84BB15BA84E1E0E6B3
:1000A000F0E0DE01119601900D928A95E1F79E0134
:1000B0002B5E3F4FFE0131968081329685BB4FEF1C
:1000C00083ED90E3415080409040E1F700C0000094
:0C00D000E217F30789F7EECFF894FFCF9A
:1000DC00FD006100DB00F3006700B700BF00E1002A
:0400EC00FF00F7001A
:00000001FF
