:100000000C942A000C943F000C943F000C943F0089
:100010000C943F000C943F000C943F000C943F0064
:100020000C943F000C943F000C943F000C943F0054
:100030000C943F000C943F000C943F000C943F0044
:100040000C943F000C943F000C943F000C943F0034
:100050000C943F0011241FBECFE5D4E0DEBFCDBF1E
:1000600010E0A0E6B0E0EAE9F0E002C005900D92F1
:10007000A036B107D9F70E9441000C944B000C94B4
:1000800000002FEF83ED90E3215080409040E1F796
:0A00900000C00000FFCFF894FFCF7E
:00000001FF
