:100000000C942B000C9453000C9453000C9453004C
:100010000C9453000C9453000C9453000C94530014
:100020000C9453000C9453000C9453000C94530004
:100030000C9453000C9453000C9453000C945300F4
:100040000C9453000C9453000C9453000C945300E4
:100050000C945300790311241FBECFE5D4E0DEBF1A
:10006000CDBF10E0A0E6B0E0E2E8F9E002C0059004
:100070000D92AE3AB107D9F720E0AEEAB0E001C088
:100080001D92A03BB207E1F710E0CBE2D0E004C044
:100090002197FE010E94B904CA32D107C9F70E9414
:1000A000B6020C94BF040C940000442311F0DF9AB4
:1000B00001C0DF98862F82958F7080FF02C0D89A8A
:1000C00001C0D89881FF02C0D99A01C0D99882FF97
:1000D00002C0DA9A01C0DA98887011F0DB9A01C088
:1000E000DB98DD9885E08A95F1F70000DD9A95E0D0
:1000F0009A95F1F70000DD988FE891E00197F1F70C
:1001000000C00000442311F0DF9A01C0DF9860FFB7
:1001100002C0D89A01C0D89861FF02C0D99A01C024
:10012000D99862FF02C0DA9A01C0DA9863FF02C070
:10013000DB9A01C0DB98DD9895E09A95F1F7000015
:10014000DD9A85E08A95F1F70000DD988FE891E06F
:100150000197F1F700C000000895CF93DF93EC0101
:1001600088819FEF980F923038F0843029F082E038
:10017000888380E1898308C089818B7F803121F069
:1001800082E0888380E18983D59AD79AD09AD19AE0
:10019000D29AD39A8FE79BEB0197F1F700C000004A
:1001A00040E063E3CE010E9455008FE39FE1019799
:1001B000F1F700C0000040E063E3CE010E9455006B
:1001C0008FE39FE10197F1F700C0000040E063E397
:1001D000CE010E9455008FE39FE10197F1F700C027
:1001E000000040E062E3CE010E9455008FE39FE1F2
:1001F0000197F1F700C0000040E068E2CE010E94E4
:1002000055008FE39FE10197F1F700C0000040E047
:1002100066E0CE010E9455008FE39FE10197F1F760
:1002200000C0000040E06CE0CE010E9455008FE36A
:100230009FE10197F1F700C0000040E061E0CE01CE
:100240000E9455008FE39FE10197F1F700C0000085
:1002500040E062E0CE010E9455008FE39FE10197EC
:10026000F1F700C00000DF91CF910895CF93DF93A5
:10027000EC0140E061E00E9455008FE39FE10197AF
:10028000F1F700C0000040E062E0CE010E9455009E
:100290008FE39FE10197F1F700C00000DF91CF915C
:1002A0000895FC0120812130A1F0223021F4662341
:1002B00021F160EC17C02430A9F4FC012181203128
:1002C00051F0662351F0613051F0623051F064ED2D
:1002D00009C060E807C064ED05C060E803C060ECD9
:1002E00001C064E9640F40E00E9455008FE39FE184
:1002F0000197F1F700C00000089560E8F3CFBF92C6
:10030000CF92DF92EF92FF920F931F93CF93DF93E1
:100310008C0179010E94510180E1E81687E2F8061C
:1003200060F19701329522952F7023273F70232784
:10033000A7E4B3E00E94AA04EC01D695C795D69530
:10034000C795D695C7956C2F605D40E1C8010E94A6
:100350005500CC23A1F09C2F9150F1F78C2F8150A8
:1003600020EF38ED829FE001839FD00D1124C7015B
:1003700080519742C80FD91F03C0E70101C0E701B0
:1003800088EEE81683E0F80658F19E013695279529
:100390003695279536952795A5ECB0E20E94AA04DC
:1003A0006C01D694C794D694C794D694C794D69427
:1003B000C79460E36C0D40E1C8010E945500CC2059
:1003C00079F09C2D9150F1F7C85ED340CA9428E192
:1003D0003CEFC29EC001C39E900D1124C80FD91FCF
:1003E00084E6E816F104F8F09E01369527953695D7
:1003F0002795ABE7B4E10E94AA046C01D694C79498
:1004000060E36C0D40E1C8010E945500CC2059F01A
:100410009C2D9150F1F7C456D109CA9484E6C89E28
:10042000C019D10911248AE0E816F104F0F09E0108
:10043000ADECBCEC0E94AA047C01F694E794F6941F
:10044000E794F694E79460E36E0D40E1C8010E94E2
:100450005500EE2051F09E2D9150F1F72A97EA9425
:100460008AE0E89EC019D10911246C2F605D40E13B
:10047000C8010E945500DF91CF911F910F91FF900D
:10048000EF90DF90CF90BF900895EF92FF920F937F
:100490001F93CF93DF93FB01442301F16081662317
:1004A000E9F0DC0111962C912223C1F0D42F8F01A9
:1004B0007C010F5F1F4FC0E00AC0F80161918F01FE
:1004C000662361F0D70111968C918C1739F040E1C9
:1004D000C7010E945500CF5FCD13EFCFDF91CF91C1
:1004E0001F910F91FF90EF900895EF92FF920F935D
:1004F0001F93CF93DF938C017901FC01C181D0E080
:10050000C41BD1090E9451014C2FB701C8010E94A0
:100510004502DF91CF911F910F91FF90EF900895C9
:10052000A19A989A08958AE08A95F1F700C0A99A4D
:1005300085E38A95F1F70000A9980AC060E070E0B1
:10054000CB016F5F7F4F8F4F9F4F9899FACF03C0BA
:100550009899F4CFFDCF0E94AF0327EE3AE34DE028
:100560005CE30E9415040E948003089580E481BB2F
:1005700012BA2FEF81EE94E0215080409040E1F7D5
:1005800000C000008EEA90E00E94AD000E94900240
:100590008EEA90E00E9436012FEF89E698E1215023
:1005A00080409040E1F700C0000021E730E042E0E9
:1005B00060E08EEA90E00E9475022EE730E040E0B5
:1005C00061E08EEA90E00E9475022FEF87EA91E6E3
:1005D000215080409040E1F700C000008EEA90E09A
:1005E0000E9436012FEF83ED90E321508040904030
:1005F000E1F700C00000C0E40E9493026B017C019F
:100600002EE830E040E060E08EEA90E00E94750263
:100610002DE930E040E061E08EEA90E00E94750252
:1006200096014AE061E08EEA90E00E947F0127EAAD
:1006300030E04DE061E08EEA90E00E9475022AE031
:10064000C216D104E104F10420F52AEA30E04AE0C0
:1006500061E08EEA90E00E94750296014CE061E054
:100660008EEA90E00E947F0127EA30E04DE061E0F1
:100670008EEA90E00E94750282B38C2782BB8FEFD6
:1006800099E628E1815090402040E1F700C0000049
:1006900026C084E6C816D104E104F10400F52BEA73
:1006A00030E04AE061E08EEA90E00E947502960137
:1006B0004BE061E08EEA90E00E947F0127EA30E0A3
:1006C0004DE061E08EEA90E00E9475029FEF29E61E
:1006D00088E1915020408040E1F700C000009FEF8A
:1006E00029E688E1915020408040E1F700C00000F9
:1006F00083CFEEEAF0E082E0808380E18183089599
:100700000E94F40388F09F5798F0B92F9927B751AA
:10071000B0F0E1F0660F771F881F991F1AF0BA95A5
:10072000C9F714C0B13091F00E940E04B1E00895F1
:100730000C940E04672F782F8827B85F39F0B93FE3
:10074000CCF3869577956795B395D9F73EF4909558
:100750008095709561957F4F8F4F9F4F0895E894D6
:1007600009C097FB3EF490958095709561957F4FF9
:100770008F4F9F4F9923A9F0F92F96E9BB279395A7
:10078000F695879577956795B795F111F8CFFAF4B7
:10079000BB0F11F460FF1BC06F5F7F4F8F4F9F4FE8
:1007A00016C0882311F096E911C0772321F09EE846
:1007B000872F762F05C0662371F096E8862F70E0AC
:1007C00060E02AF09A95660F771F881FDAF7880F86
:1007D0009695879597F9089557FD9058440F551FA2
:1007E00059F05F3F71F04795880F97FB991F61F0B3
:1007F0009F3F79F087950895121613061406551F2A
:10080000F2CF4695F1DF08C0161617061806991F95
:10081000F1CF86957105610508940895E894BB278A
:1008200066277727CB0197F908950E9428040C9436
:1008300099040E948B0438F00E94920420F09523C2
:1008400011F00C9482040C94880411240C940F046D
:100850000E94EC0370F3959FC1F3950F50E0551F74
:10086000629FF001729FBB27F00DB11D639FAA2705
:10087000F00DB11DAA1F649F6627B00DA11D661F54
:10088000829F2227B00DA11D621F739FB00DA11D75
:10089000621F839FA00D611D221F749F3327A00D2F
:1008A000611D231F849F600D211D822F762F6A2FCB
:1008B00011249F5750409AF0F1F088234AF0EE0F30
:1008C000FF1FBB1F661F771F881F91505040A9F75D
:1008D0009E3F510580F00C9482040C940F045F3FFE
:1008E000E4F3983ED4F3869577956795B795F79599
:1008F000E7959F5FC1F7FE2B880F911D9695879511
:1009000097F9089597F99F6780E870E060E008958F
:100910009FEF80EC089500240A9416161706180617
:100920000906089500240A941216130614060506F3
:100930000895092E0394000C11F4882352F0BB0F84
:1009400040F4BF2B11F460FF04C06F5F7F4F8F4FE7
:100950009F4F0895A29FB001B39FC001A39F700D48
:10096000811D1124911DB29F700D811D1124911DB7
:100970000895EE0FFF1F0590F491E02D0994F8946F
:02098000FFCFA7
:1009820030313233343536373839414243444546C3
:1009920000494E495449414C495A494E4700534F28
:1009A2004E41522053595354454D2E2E2E00494E3E
:1009B2002050524F47524553532E2E2E00446973F6
:0E09C20074616E63653A00636D0030300000B2
:00000001FF
