S019000053657452746354696D655F627574746F6E2E737265632C
S11300000C942B000C9453000C9453000C94530048
S11300100C9453000C9453000C9453000C94530010
S11300200C9453000C9453000C9453000C94530000
S11300300C9453000C9453000C9453000C945300F0
S11300400C9453000C9453000C9453000C945300E0
S11300500C9453005B0211241FBECFE5D4E0DEBF35
S1130060CDBF10E0A0E6B0E0E4EDF4E002C00590FE
S11300700D92A439B107D9F720E0A4E9B0E001C09A
S11300801D92AF3AB207E1F710E0CBE2D0E004C032
S11300902197FE010E946202CA32D107C9F70E9469
S11300A0FB010C9468020C940000442311F0DF9AC5
S11300B001C0DF98862F82958F7080FF02C0D89A86
S11300C001C0D89881FF02C0D99A01C0D99882FF93
S11300D002C0DA9A01C0DA98887011F0DB9A01C084
S11300E0DB98DD9885E08A95F1F70000DD9A95E0CC
S11300F09A95F1F70000DD988FE891E00197F1F708
S113010000C00000442311F0DF9A01C0DF9860FFB3
S113011002C0D89A01C0D89861FF02C0D99A01C020
S1130120D99862FF02C0DA9A01C0DA9863FF02C06C
S1130130DB9A01C0DB98DD9895E09A95F1F7000011
S1130140DD9A85E08A95F1F70000DD988FE891E06B
S11301500197F1F700C000000895CF93DF93EC01FD
S113016088819FEF980F923038F0843029F082E034
S1130170888380E1898308C089818B7F803121F065
S113018082E0888380E18983D59AD79AD09AD19ADC
S1130190D29AD39A8FE79BEB0197F1F700C0000046
S11301A040E063E3CE010E9455008FE39FE1019795
S11301B0F1F700C0000040E063E3CE010E94550067
S11301C08FE39FE10197F1F700C0000040E063E393
S11301D0CE010E9455008FE39FE10197F1F700C023
S11301E0000040E062E3CE010E9455008FE39FE1EE
S11301F00197F1F700C0000040E068E2CE010E94E0
S113020055008FE39FE10197F1F700C0000040E043
S113021066E0CE010E9455008FE39FE10197F1F75C
S113022000C0000040E06CE0CE010E9455008FE366
S11302309FE10197F1F700C0000040E061E0CE01CA
S11302400E9455008FE39FE10197F1F700C0000081
S113025040E062E0CE010E9455008FE39FE10197E8
S1130260F1F700C00000DF91CF910895CF93DF93A1
S1130270EC0140E061E00E9455008FE39FE10197AB
S1130280F1F700C0000040E062E0CE010E9455009A
S11302908FE39FE10197F1F700C00000DF91CF9158
S11302A00895FC0120812130A1F0223021F466233D
S11302B021F160EC17C02430A9F4FC012181203124
S11302C051F0662351F0613051F0623051F064ED29
S11302D009C060E807C064ED05C060E803C060ECD5
S11302E001C064E9640F40E00E9455008FE39FE180
S11302F00197F1F700C00000089560E8F3CFEF9292
S1130300FF920F931F93CF93DF93FB01442301F1DB
S113031060816623E9F0DC0111962C912223C1F05F
S1130320D42F8F017C010F5F1F4FC0E00AC0F8017A
S113033061918F01662361F0D70111968C918C171E
S113034039F040E1C7010E945500CF5FCD13EFCFD4
S1130350DF91CF911F910F91FF90EF900895EF924D
S1130360FF920F931F93CF93DF938C017901FC01CC
S1130370C181D0E0C41BD1090E9451014C2FB701A7
S1130380C8010E947F01DF91CF911F910F91FF90CF
S1130390EF9008958FE085BB80EF84BB8AE18A9556
S11303A0F1F700C0A89B08C0A99B08C0AA9B08C07D
S11303B0AB991DC08CE005C080E003C084E001C09F
S11303C088E090EF95BB9FE094BB9AE19A95F1F792
S11303D000C0AC9B0FC0AD9902C08F5F0895AE9969
S11303E002C08E5F0895AF9904C08D5F08958FEFAA
S11303F008958FEF08952FEF81EE94E0215080400F
S11304009040E1F700C000008DEA90E00E94AD004A
S11304102FEF81EE94E0215080409040E1F700C03E
S113042000008DEA90E00E9436012FEF83ED90E307
S1130430215080409040E1F700C0000022E830E005
S113044040E060E08DEA90E00E94AF010E94CA01A2
S113045090E090939700809396008F3F910571F3FD
S11304604091AC004A5F22E930E061E08DEA90E01F
S11304700E94AF01E0919600F0919700E05AFF4F7F
S11304809081292F30E0309395002093940080913F
S1130490AC00E82FF0E0E856FF4F90838F5F809325
S11304A0AC002FEF89E698E1215080409040E1F7BD
S11304B000C00000C3CFEDEAF0E082E0808380E179
S11304C081830895EE0FFF1F0590F491E02D0994A8
S10704D0F894FFCFCA
S11304D43132334134353642373839432A302344B0
S11304E400303132333435363738394142434445A8
S11304F44600454E5445522050415353574F52449D
S10705043A002A008B
S9030000FC
