S01200005265616C20636C6F636B2E7372656362
S11300000C942B000C9453000C9453000C94530048
S11300100C9453000C9453000C9413060C9453004A
S11300200C9453000C9453000C9453000C94530000
S11300300C9453000C9453000C9453000C945300F0
S11300400C9453000C9453000C9453000C945300E0
S11300500C945300440611241FBECFE5D4E0DEBF48
S1130060CDBF11E0A0E6B0E0EEECFCE002C00590EC
S11300700D92A43AB107D9F721E0A4EAB1E001C096
S11300801D92A03CB207E1F710E0CBE2D0E004C03F
S11300902197FE010E945F06CA32D107C9F70E9468
S11300A08D050C9465060C940000442311F0DF9A2E
S11300B001C0DF98862F82958F7080FF02C0D89A86
S11300C001C0D89881FF02C0D99A01C0D99882FF93
S11300D002C0DA9A01C0DA98887011F0DB9A01C084
S11300E0DB98DD9885E08A95F1F70000DD9A95E0CC
S11300F09A95F1F70000DD988FE891E00197F1F708
S113010000C00000442311F0DF9A01C0DF9860FFB3
S113011002C0D89A01C0D89861FF02C0D99A01C020
S1130120D99862FF02C0DA9A01C0DA9863FF02C06C
S1130130DB9A01C0DB98DD9895E09A95F1F7000011
S1130140DD9A85E08A95F1F70000DD988FE891E06B
S11301500197F1F700C000000895CF93DF93EC01FD
S113016088819FEF980F923038F0843029F082E034
S1130170888380E1898308C089818B7F803121F065
S113018082E0888380E18983D59AD79AD09AD19ADC
S1130190D29AD39A8FE79BEB0197F1F700C0000046
S11301A040E063E3CE010E9455008FE39FE1019795
S11301B0F1F700C0000040E063E3CE010E94550067
S11301C08FE39FE10197F1F700C0000040E063E393
S11301D0CE010E9455008FE39FE10197F1F700C023
S11301E0000040E062E3CE010E9455008FE39FE1EE
S11301F00197F1F700C0000040E068E2CE010E94E0
S113020055008FE39FE10197F1F700C0000040E043
S113021066E0CE010E9455008FE39FE10197F1F75C
S113022000C0000040E06CE0CE010E9455008FE366
S11302309FE10197F1F700C0000040E061E0CE01CA
S11302400E9455008FE39FE10197F1F700C0000081
S113025040E062E0CE010E9455008FE39FE10197E8
S1130260F1F700C00000DF91CF910895CF93DF93A1
S1130270EC0140E061E00E9455008FE39FE10197AB
S1130280F1F700C0000040E062E0CE010E9455009A
S11302908FE39FE10197F1F700C00000DF91CF9158
S11302A00895FC0120812130A1F0223021F466233D
S11302B021F160EC17C02430A9F4FC012181203124
S11302C051F0662351F0613051F0623051F064ED29
S11302D009C060E807C064ED05C060E803C060ECD5
S11302E001C064E9640F40E00E9455008FE39FE180
S11302F00197F1F700C00000089560E8F3CFBF92C2
S1130300CF92DF92EF92FF920F931F93CF93DF93DD
S11303108C0179010E94510180E1E81687E2F80618
S113032060F19701329522952F7023273F70232780
S1130330A7E4B3E00E945006EC01D695C795D69584
S1130340C795D695C7956C2F605D40E1C8010E94A2
S11303505500CC23A1F09C2F9150F1F78C2F8150A4
S113036020EF38ED829FE001839FD00D1124C70157
S113037080519742C80FD91F03C0E70101C0E701AC
S113038088EEE81683E0F80658F19E013695279525
S11303903695279536952795A5ECB0E20E94500630
S11303A06C01D694C794D694C794D694C794D69423
S11303B0C79460E36C0D40E1C8010E945500CC2055
S11303C079F09C2D9150F1F7C85ED340CA9428E18E
S11303D03CEFC29EC001C39E900D1124C80FD91FCB
S11303E084E6E816F104F8F09E01369527953695D3
S11303F02795ABE7B4E10E9450066C01D694C794EC
S113040060E36C0D40E1C8010E945500CC2059F016
S11304109C2D9150F1F7C456D109CA9484E6C89E24
S1130420C019D10911248AE0E816F104F0F09E0104
S1130430ADECBCEC0E9450067C01F694E794F69473
S1130440E794F694E79460E36E0D40E1C8010E94DE
S11304505500EE2051F09E2D9150F1F72A97EA9421
S11304608AE0E89EC019D10911246C2F605D40E137
S1130470C8010E945500DF91CF911F910F91FF9009
S1130480EF90DF90CF90BF900895EF92FF920F937B
S11304901F93CF93DF93FB01442301F16081662313
S11304A0E9F0DC0111962C912223C1F0D42F8F01A5
S11304B07C010F5F1F4FC0E00AC0F80161918F01FA
S11304C0662361F0D70111968C918C1739F040E1C5
S11304D0C7010E945500CF5FCD13EFCFDF91CF91BD
S11304E01F910F91FF90EF900895EF92FF920F9359
S11304F01F93CF93DF938C017901FC01C181D0E07C
S1130500C41BD1090E9451014C2FB701C8010E949C
S11305104502DF91CF911F910F91FF90EF900895C5
S1130520959894988D988C9880E008958D988C98DF
S113053085E38A95F1F700008C9A949885E38A956F
S1130540F1F700008D9A959885E38A95F1F70000FC
S113055008958D9A95988C9A949885E38A95F1F7E5
S113056000008D9895E39A95F1F700008C988FE33D
S11305709CE90197F1F700C00000089528E030E0FD
S113058080E8982F962311F08C9802C08C9A949846
S113059095E39A95F1F700008D9895E39A95F1F714
S11305A000008D9A959895E39A95F1F70000869549
S11305B02150310931F78C9885E38A95F1F70000D1
S11305C08D9895E39A95F1F7000080B38295817038
S11305D095E39A95F1F700008D9A959895E39A958D
S11305E0F1F7000008958C9845E34A95F1F700006F
S11305F028E030E080E090E88D9845E34A95F1F7F3
S113060000008C988499892B8D9A959845E34A9596
S1130610F1F7000096952150310971F7611102C07C
S11306208C9802C08C9A949895E39A95F1F70000FF
S11306308D9845E34A95F1F700008D9A959895E3D6
S11306409A95F1F7000008950F931F93CF93DF93CA
S1130650EC018B01442319F0413059F011C060E0E2
S11306600E94F302F8018083CE010E94A90281E076
S113067008C061E00E94F302F801808381E001C0B8
S113068080E0DF91CF911F910F9108951F93CF9335
S1130690DF93EC01162F442319F0413029F00DC0EB
S11306A00E94BE0281E00AC0672F0E94BE02612F31
S11306B0CE010E94BE0281E001C080E0DF91CF91B3
S11306C01F910895EF92FF920F931F93CF93DF939F
S11306D08C01C62F7A01D22F0E949602CC0F6C2F68
S11306E0C8010E94BE024D2FB701C8010E944603F3
S11306F0C8010E9496026C2F6160C8010E94BE026C
S113070080E0DF91CF911F910F91FF90EF900895BA
S1130710CF92DF92EF92FF920F931F93CF937C01BE
S11307206A01022FFC012181AB0160810E946203F6
S113073010E001501109101611067CF4C0E0B60156
S11307406C0F711D41E0C7010E942403CF5FEC2FA1
S1130750F0E0E017F1079CF301C0C0E0B6016C0FB4
S1130760711D40E0C7010E9424038C2FCF911F917B
S11307700F91FF90EF90DF90CF90089587B38FEFA4
S113078087BB8F9A0895C79A81E0982F9A95F1F7BD
S1130790C7988A95F1F70895C49AC4980895C59A9C
S11307A0C5980895C69AC6980895979A97980895F3
S11307B0CF93DF93D82FC8E0DD2314F4C09A01C08F
S11307C0C0980E94CC03DD0FC150B1F7DF91CF91E7
S11307D00895CF93DF93D82FC8E0DD2314F4C19A92
S11307E001C0C1980E94CF03DD0FC150B1F7DF9162
S11307F0CF910895CF93DF93D82FC8E0DD2314F46D
S1130800C29A01C0C2980E94D203DD0FC150B1F751
S1130810DF91CF910895CF93DF93D82FC8E0DD23E4
S113082014F4C39A01C0C3980E94D503DD0FC150CC
S1130830B1F7DF91CF910895CF93DF93C4EAD1E06C
S1130840EA81F0E0E657FF4F80810E94D803EB81F4
S1130850F0E0E657FF4F80810E94E903EC81F0E06D
S1130860E657FF4F80810E94FA03ED81F0E0E657DE
S1130870FF4F80810E940B040E94C303DF91CF913C
S113088008958091B5012DEE280F91E02D3008F0E8
S113089090E0911106C091E0823208F490E099232F
S11308A091F099E3899F912D112496959695990F2E
S11308B0292F220F220F220F920F891B8093BB0135
S11308C084E085BB23C0811106C082E18093BB0113
S11308D082E085BB1BC0803231F488E08093BB0189
S11308E084E085BB13C0813231F489E08093BB017D
S11308F084E085BB0BC0823129F48093BB0184E082
S113090085BB04C08093BB0182E085BBA3EBB1E04F
S11309108C91E4EAF1E0982F9F70908390E0959594
S113092087959595879595958795959587958770DE
S1130930818311968C911197982F9F70928390E0E8
S1130940959587959595879595958795959587958B
S1130950877083838091BB01982F9F70948390E06C
S1130960959587959595879595958795959587956B
S11309708770858313968C911397982F9F70968315
S113098090E09595879595958795959587959595F7
S113099087958770878314968C911497982F9F70EE
S11309A0908790E0959587959595879595958795EA
S11309B0959587958770818715968C911597982FB3
S11309C09F70928790E095958795959587959595D5
S11309D08795959587958770838716968C91982F20
S11309E09F70948790E095958795959587959595B3
S11309F0879595958795877085870895CF93DF931D
S1130A00C4EAD1E0EE81F0E0EE0FFF1FE658FF4F9D
S1130A102081318143E060E08EEB91E00E94750219
S1130A20EA85E1110FC08091AF01813069F5209111
S1130A3074003091750040E061E08EEB91E00E941B
S1130A4075022FC0E13079F48091AF018130E1F477
S1130A50209176003091770040E061E08EEB91E0E8
S1130A600E9475021EC0E23079F48091AF0181309A
S1130A7059F4209178003091790040E061E08EEBE8
S1130A8091E00E9475020DC0F0E0EE0FFF1FE05AE6
S1130A90FF4F2081318140E061E08EEB91E00E94C4
S1130AA07502C4EAD1E0298530E049E061E08EEBCB
S1130AB091E00E947F01288530E04AE061E08EEBFE
S1130AC091E00E947F0126EA30E04BE061E08EEB8A
S1130AD091E00E9475022091940030E04CE061E0C6
S1130AE08EEB91E00E947F012D8530E04EE061E0C5
S1130AF08EEB91E00E947F012C8530E04FE061E0B5
S1130B008EEB91E00E947F018FE39CE90197F1F75E
S1130B1000C00000DF91CF9108958FEF84BB15BA18
S1130B208CEB91E00E9490028EEB91E00E94AD006C
S1130B300E94BE032FEF81EE94E02150804090404C
S1130B40E1F700C0000028EA30E040E060E08EEB0E
S1130B5091E00E9475022FEF83ED90E321508040D5
S1130B609040E1F700C000008EEB91E00E94360156
S1130B70C0E0D0E029EB30E040E060E08EEB91E0B3
S1130B800E9475029E0147E061E08EEB91E00E94B5
S1130B907F012AEC30E04AE061E08EEB91E00E94B4
S1130BA075022FE788E391E0215080409040E1F7FF
S1130BB000C000002196C536D105E1F62FEF83ED84
S1130BC090E3215080409040E1F700C000008EEB9C
S1130BD091E00E9436012FEF89E698E12150804090
S1130BE09040E1F700C00000789484E08EBD80E17D
S1130BF089BF83E294EF9BBD8ABD28E043EB51E0BB
S1130C0060E070E08CEB91E00E9488030E94410454
S1130C100E941C040E94FE048FE99FE00197F1F7F3
S1130C2000C00000EACF1F920F920FB60F9211245A
S1130C302F933F934F935F936F937F938F939F93E0
S1130C40AF93BF93EF93FF930E94410495B381E068
S1130C50892785BB2FEF89E698E121508040904099
S1130C60E1F700C00000FF91EF91BF91AF919F9118
S1130C708F917F916F915F914F913F912F910F9041
S1130C800FBE0F901F901895EEEBF1E082E0808389
S1130C9080E18183ECEBF1E088E6808311820895A2
S1130CA0A29FB001B39FC001A39F700D811D1124A9
S1130CB0911DB29F700D811D1124911D0895EE0F99
S1110CC0FF1F0590F491E02D0994F894FFCFE6
S1130CCECC00D500DF00EA00F400FE00080112019A
S1130CDE1C0125012E0137014101CC004B015701A6
S1130CEE630170017D018A0196013F065B4F666DBB
S1130CFE7D077F6F1430313233343536373839410E
S1130D0E4243444546002C0053595354454D2053F9
S1130D1E5441525455502E2E005550444154494E70
S1130D2E472054494D452E2E2E00250020202020EC
S1130D3E2020202000204A414E55415259200020A7
S1130D4E202020204645422E20002020204D4152B6
S1130D5E43482000202020415052494C200020209E
S1130D6E2020204D41592000202020204A554E4558
S1130D7E2000202020204A554C5920002041554760
S1130D8E55535420002020534550542E20004F43D9
S1130D9E544F42455220004E4F56454D4245522027
S1130DAE00444543454D4245522000202053554EA4
S1130DBE4441592020200020204D4F4E44415920BB
S1130DCE2020002020545545534441592020200012
S1130DDE205745444E455344415920200020205469
S1130DEE485552534441592020002020465249442C
S1130DFE415920202000205341545552444159203A
S1070E0E202020007C
S9030000FC
