:100000000C942B000C9453000C9453000C9453004C
:100010000C9453000C9453000C9453000C94530014
:100020000C9453000C9453000C9453000C94530004
:100030000C9453000C9453000C9453000C945300F4
:100040000C9453000C9453000C9453000C945300E4
:100050000C945300630311241FBECFE5D4E0DEBF30
:10006000CDBF10E0A0E6B0E0E6E5F9E002C0059003
:100070000D92A83AB107D9F720E0A8EAB0E001C094
:100080001D92AA3AB207E1F710E0CBE2D0E004C03B
:100090002197FE010E94A304CA32D107C9F70E942A
:1000A000AA020C94A9040C940000442311F0C09AF5
:1000B00001C0C098862F82958F7080FF02C0C29ABF
:1000C00001C0C29881FF02C0C39A01C0C39882FFD9
:1000D00002C0C49A01C0C498887011F0C59A01C0CA
:1000E000C598C19882E08A95F1F7C19A82E08A9515
:1000F000F1F7C19888EC8A95F1F7442311F0C09A82
:1001000001C0C09860FF02C0C29A01C0C29861FFDE
:1001100002C0C39A01C0C39862FF02C0C49A01C062
:10012000C49863FF02C0C59A01C0C598C19882E017
:100130008A95F1F7C19A82E08A95F1F7C19888EC27
:100140008A95F1F70895CF93DF93EC0188819FEFB3
:10015000980F923038F0843029F082E0888380E173
:10016000898308C089818B7F803121F082E0888378
:1001700080E18983B99AB89ABA9ABB9ABC9ABD9A17
:100180008FE496E40197F1F700C0000040E063E3DC
:10019000CE010E94550087EB9BE00197F1F700C06C
:1001A000000040E063E3CE010E94550087EB9BE036
:1001B0000197F1F700C0000040E063E3CE010E9428
:1001C000550087EB9BE00197F1F700C0000040E08D
:1001D00062E3CE010E94550087EB9BE00197F1F7A7
:1001E00000C0000040E068E2CE010E94550087EBAD
:1001F0009BE00197F1F700C0000040E066E0CE010F
:100200000E94550087EB9BE00197F1F700C00000CA
:1002100040E06CE0CE010E94550087EB9BE0019727
:10022000F1F700C0000040E061E0CE010E945500FF
:1002300087EB9BE00197F1F700C0000040E062E02F
:10024000CE010E94550087EB9BE00197F1F700C0BB
:100250000000DF91CF910895CF93DF93EC0140E050
:1002600061E00E94550087EB9BE00197F1F700C029
:10027000000040E062E0CE010E94550087EB9BE069
:100280000197F1F700C00000DF91CF910895FC01C4
:1002900020812130A1F0223021F4662321F160EC8D
:1002A00017C02430A9F4FC012181203151F06623CC
:1002B00051F0613051F0623051F064ED09C060E8F6
:1002C00007C064ED05C060E803C060EC01C064E9EC
:1002D000640F40E00E94550087EB9BE00197F1F727
:1002E00000C00000089560E8F3CFBF92CF92DF9284
:1002F000EF92FF920F931F93CF93DF938C017901BD
:100300000E94470180E1E81687E2F80660F1970154
:10031000329522952F7023273F702327A7E4B3E05F
:100320000E949404EC01D695C795D695C795D695AD
:10033000C7956C2F605D40E1C8010E945500CC2339
:10034000A1F09C2F9150F1F78C2F815020EF38EDC8
:10035000829FE001839FD00D1124C70180519742F5
:10036000C80FD91F03C0E70101C0E70188EEE816F6
:1003700083E0F80658F19E01369527953695279526
:1003800036952795A5ECB0E20E9494046C01D694B2
:10039000C794D694C794D694C794D694C79460E370
:1003A0006C0D40E1C8010E945500CC2079F09C2DD5
:1003B0009150F1F7C85ED340CA9428E13CEFC29E49
:1003C000C001C39E900D1124C80FD91F84E6E81602
:1003D000F104F8F09E013695279536952795ABE701
:1003E000B4E10E9494046C01D694C79460E36C0D50
:1003F00040E1C8010E945500CC2059F09C2D91503D
:10040000F1F7C456D109CA9484E6C89EC019D1092F
:1004100011248AE0E816F104F0F09E01ADECBCEC8A
:100420000E9494047C01F694E794F694E794F69481
:10043000E79460E36E0D40E1C8010E945500EE2094
:1004400051F09E2D9150F1F72A97EA948AE0E89EA8
:10045000C019D10911246C2F605D40E1C8010E94D0
:100460005500DF91CF911F910F91FF90EF90DF909A
:10047000CF90BF900895EF92FF920F931F93CF9369
:10048000DF93FB01442301F160816623E9F0DC0185
:1004900011962C912223C1F0D42F8F017C010F5F84
:1004A0001F4FC0E00AC0F80161918F01662361F01F
:1004B000D70111968C918C1739F040E1C7010E9449
:1004C0005500CF5FCD13EFCFDF91CF911F910F91EB
:1004D000FF90EF900895EF92FF920F931F93CF93A9
:1004E000DF938C017901FC01C181D0E0C41BD109EB
:1004F0000E9447014C2FB701C8010E943B02DF91C7
:10050000CF911F910F91FF90EF900895D09AC99AC3
:10051000089584E08A95F1F7D89A84E18A95F1F7F5
:10052000D8980AC060E070E0CB016F5F7F4F8F4FBB
:100530009F4FC999FACF03C0C999F4CFFDCF0E944C
:10054000990327EE3AE34DE05CE30E94FF030E942B
:100550006A03089580E881BB82BB2FEB84ED91E0B4
:10056000215080409040E1F700C0000088EA90E010
:100570000E94A3000E94860221E730E042E060E092
:1005800088EA90E00E946B022EE730E042E061E0F2
:1005900088EA90E00E946B022FEF8DE399E42150EE
:1005A00080409040E1F700C0000088EA90E00E949F
:1005B0002C01C0E80E9489026B017C012DE830E02B
:1005C00040E060E088EA90E00E946B022AE930E0B7
:1005D00040E061E088EA90E00E946B0296014AE008
:1005E00061E088EA90E00E94750121EA30E04DE088
:1005F00061E088EA90E00E946B022AE0C216D10412
:10060000E104F10408F524EA30E04AE061E088EA18
:1006100090E00E946B0296014CE061E088EA90E075
:100620000E94750121EA30E04DE061E088EA90E047
:100630000E946B028FEB97E229E0815090402040AE
:10064000E1F700C0000026C084E6C816D104E1042A
:10065000F10400F525EA30E04AE061E088EA90E044
:100660000E946B0296014BE061E088EA90E00E94F4
:10067000750121EA30E04DE061E088EA90E00E94F7
:100680006B029FEB27E289E0915020408040E1F728
:1006900000C000009FEB27E289E09150204080409D
:1006A000E1F700C0000092E3C916D104E104F104AF
:1006B00008F4979823E3C216D104E104F10408F486
:1006C00079CFC2BB77CFE8EAF0E082E0808380E1B7
:1006D000818308950E94DE0388F09F5798F0B92F18
:1006E0009927B751B0F0E1F0660F771F881F991F67
:1006F0001AF0BA95C9F714C0B13091F00E94F8030E
:10070000B1E008950C94F803672F782F8827B85F1D
:1007100039F0B93FCCF3869577956795B395D9F7BE
:100720003EF490958095709561957F4F8F4F9F4FC8
:100730000895E89409C097FB3EF4909580957095D4
:1007400061957F4F8F4F9F4F9923A9F0F92F96E91D
:10075000BB279395F695879577956795B795F11192
:10076000F8CFFAF4BB0F11F460FF1BC06F5F7F4F2F
:100770008F4F9F4F16C0882311F096E911C0772341
:1007800021F09EE8872F762F05C0662371F096E84A
:10079000862F70E060E02AF09A95660F771F881F19
:1007A000DAF7880F9695879597F9089557FD905831
:1007B000440F551F59F05F3F71F04795880F97FB25
:1007C000991F61F09F3F79F08795089512161306DF
:1007D0001406551FF2CF4695F1DF08C0161617060E
:1007E0001806991FF1CF8695710561050894089543
:1007F000E894BB2766277727CB0197F908950E94D5
:1008000012040C9483040E94750438F00E947C0446
:1008100020F0952311F00C946C040C9472041124B4
:100820000C94F9030E94D60370F3959FC1F3950FC2
:1008300050E0551F629FF001729FBB27F00DB11D64
:10084000639FAA27F00DB11DAA1F649F6627B00DF4
:10085000A11D661F829F2227B00DA11D621F739FDD
:10086000B00DA11D621F839FA00D611D221F749FEB
:100870003327A00D611D231F849F600D211D822F32
:10088000762F6A2F11249F5750409AF0F1F0882359
:100890004AF0EE0FFF1FBB1F661F771F881F915086
:1008A0005040A9F79E3F510580F00C946C040C94C5
:1008B000F9035F3FE4F3983ED4F386957795679507
:1008C000B795F795E7959F5FC1F7FE2B880F911DB0
:1008D0009695879597F9089597F99F6780E870E056
:1008E00060E008959FEF80EC089500240A941616A6
:1008F000170618060906089500240A94121613060E
:10090000140605060895092E0394000C11F488239B
:1009100052F0BB0F40F4BF2B11F460FF04C06F5FB7
:100920007F4F8F4F9F4F0895A29FB001B39FC0018B
:10093000A39F700D811D1124911DB29F700D811D0B
:100940001124911D0895EE0FFF1F0590F491E02DE5
:060950000994F894FFCFAA
:1009560030313233343536373839414243444546EF
:1009660000494E495449414C495A494E470057415E
:10097600544552204C4556454C2E2E2E004D454191
:10098600535552494E472E2E2E004C6576656C3ACD
:0809960000636D003030000029
:00000001FF
