S01D00007075736820627574746F6E2037207365676D656E742E7372656321
S11300000C942A000C9434000C9434000C943400A6
S11300100C9434000C9434000C9434000C9434008C
S11300200C9434000C9434000C9434000C9434007C
S11300300C9434000C9434000C9434000C9434006C
S11300400C9434000C9434000C9434000C9434005C
S11300500C94340011241FBECFE5D4E0DEBFCDBF25
S11300600E9436000C9495000C9400008FEF84BB22
S11300708CEF85BB11BA80E482BB20E030E080E0E5
S113008090E000E0F12CD7EFCFEFB1EEAFEBF7EB60
S1130090E7E673EF6BED51E64DEF86990CC01FEB6D
S11300A084ED91E0115080409040E1F700C00000E1
S11300B0C901019601C09C018130910511F445BB31
S11300C0ECCF8230910511F455BBE7CF8330910515
S11300D011F465BBE2CF8430910511F475BBDDCF1B
S11300E08530910511F4E5BBD8CF8630910511F424
S11300F0F5BBD3CF8730910511F4A5BBCECF8830A3
S1130100910511F4B5BBC9CF8930910511F4C5BB74
S1130110C4CF8A30910511F4D5BBBFCF8B30910584
S111012009F0BBCF202F3F2DB8CFF894FFCFAE
S9030000FC
